{
  "contractName": "MultiSigWallet",
  "abi": [
    {
      "inputs": [
        {
          "internalType": "address[]",
          "name": "_owners",
          "type": "address[]"
        },
        {
          "internalType": "uint8",
          "name": "count",
          "type": "uint8"
        }
      ],
      "stateMutability": "nonpayable",
      "type": "constructor"
    },
    {
      "inputs": [],
      "name": "approvalcount",
      "outputs": [
        {
          "internalType": "uint8",
          "name": "",
          "type": "uint8"
        }
      ],
      "stateMutability": "view",
      "type": "function"
    },
    {
      "inputs": [
        {
          "internalType": "uint256",
          "name": "",
          "type": "uint256"
        },
        {
          "internalType": "address",
          "name": "",
          "type": "address"
        }
      ],
      "name": "ownerApprovals",
      "outputs": [
        {
          "internalType": "bool",
          "name": "",
          "type": "bool"
        }
      ],
      "stateMutability": "view",
      "type": "function"
    },
    {
      "inputs": [
        {
          "internalType": "uint256",
          "name": "",
          "type": "uint256"
        }
      ],
      "name": "transactions",
      "outputs": [
        {
          "internalType": "bool",
          "name": "executed",
          "type": "bool"
        },
        {
          "internalType": "uint8",
          "name": "approvals",
          "type": "uint8"
        },
        {
          "internalType": "address",
          "name": "to",
          "type": "address"
        },
        {
          "internalType": "uint256",
          "name": "value",
          "type": "uint256"
        },
        {
          "internalType": "bytes",
          "name": "data",
          "type": "bytes"
        }
      ],
      "stateMutability": "view",
      "type": "function"
    },
    {
      "stateMutability": "payable",
      "type": "receive"
    },
    {
      "inputs": [],
      "name": "getOwners",
      "outputs": [
        {
          "internalType": "address[]",
          "name": "",
          "type": "address[]"
        }
      ],
      "stateMutability": "view",
      "type": "function"
    },
    {
      "inputs": [
        {
          "internalType": "address",
          "name": "to",
          "type": "address"
        },
        {
          "internalType": "uint256",
          "name": "value",
          "type": "uint256"
        },
        {
          "internalType": "bytes",
          "name": "data",
          "type": "bytes"
        }
      ],
      "name": "submitTransaction",
      "outputs": [],
      "stateMutability": "nonpayable",
      "type": "function"
    },
    {
      "inputs": [
        {
          "internalType": "uint256",
          "name": "tID",
          "type": "uint256"
        }
      ],
      "name": "approveTransaction",
      "outputs": [],
      "stateMutability": "nonpayable",
      "type": "function"
    },
    {
      "inputs": [
        {
          "internalType": "uint256",
          "name": "tID",
          "type": "uint256"
        }
      ],
      "name": "executeTransaction",
      "outputs": [],
      "stateMutability": "nonpayable",
      "type": "function"
    },
    {
      "inputs": [
        {
          "internalType": "uint256",
          "name": "tID",
          "type": "uint256"
        }
      ],
      "name": "revertApproval",
      "outputs": [],
      "stateMutability": "nonpayable",
      "type": "function"
    }
  ],
  "bytecode": "0x60806040523480156200001157600080fd5b5060405162001e9638038062001e9683398181016040528101906200003791906200034c565b81600190805190602001906200004f92919062000072565b50806000806101000a81548160ff021916908360ff1602179055505050620003b2565b828054828255906000526020600020908101928215620000ee579160200282015b82811115620000ed5782518260006101000a81548173ffffffffffffffffffffffffffffffffffffffff021916908373ffffffffffffffffffffffffffffffffffffffff1602179055509160200191906001019062000093565b5b509050620000fd919062000101565b5090565b5b808211156200011c57600081600090555060010162000102565b5090565b6000604051905090565b600080fd5b600080fd5b600080fd5b6000601f19601f8301169050919050565b7f4e487b7100000000000000000000000000000000000000000000000000000000600052604160045260246000fd5b620001848262000139565b810181811067ffffffffffffffff82111715620001a657620001a56200014a565b5b80604052505050565b6000620001bb62000120565b9050620001c9828262000179565b919050565b600067ffffffffffffffff821115620001ec57620001eb6200014a565b5b602082029050602081019050919050565b600080fd5b600073ffffffffffffffffffffffffffffffffffffffff82169050919050565b60006200022f8262000202565b9050919050565b620002418162000222565b81146200024d57600080fd5b50565b600081519050620002618162000236565b92915050565b60006200027e6200027884620001ce565b620001af565b90508083825260208201905060208402830185811115620002a457620002a3620001fd565b5b835b81811015620002d15780620002bc888262000250565b845260208401935050602081019050620002a6565b5050509392505050565b600082601f830112620002f357620002f262000134565b5b81516200030584826020860162000267565b91505092915050565b600060ff82169050919050565b62000326816200030e565b81146200033257600080fd5b50565b60008151905062000346816200031b565b92915050565b600080604083850312156200036657620003656200012a565b5b600083015167ffffffffffffffff8111156200038757620003866200012f565b5b6200039585828601620002db565b9250506020620003a88582860162000335565b9150509250929050565b611ad480620003c26000396000f3fe60806040526004361061007f5760003560e01c80639ace38c21161004e5780639ace38c214610145578063a0e67e2b14610186578063c6427474146101b1578063ee22610b146101da57610086565b806321a59bba1461008b578063242232d1146100c8578063678d1804146100f157806374da3b1f1461011c57610086565b3661008657005b600080fd5b34801561009757600080fd5b506100b260048036038101906100ad9190610f48565b610203565b6040516100bf9190610fa3565b60405180910390f35b3480156100d457600080fd5b506100ef60048036038101906100ea9190610fbe565b610232565b005b3480156100fd57600080fd5b5061010661048f565b6040516101139190611007565b60405180910390f35b34801561012857600080fd5b50610143600480360381019061013e9190610fbe565b6104a0565b005b34801561015157600080fd5b5061016c60048036038101906101679190610fbe565b61073b565b60405161017d9594939291906110d0565b60405180910390f35b34801561019257600080fd5b5061019b610833565b6040516101a891906111e8565b60405180910390f35b3480156101bd57600080fd5b506101d860048036038101906101d3919061126f565b6108c1565b005b3480156101e657600080fd5b5061020160048036038101906101fc9190610fbe565b610ae2565b005b60046020528160005260406000206020528060005260406000206000915091509054906101000a900460ff1681565b61023b33610df6565b61027a576040517f08c379a000000000000000000000000000000000000000000000000000000000815260040161027190611340565b60405180910390fd5b80600073ffffffffffffffffffffffffffffffffffffffff166003600083815260200190815260200160002060000160029054906101000a900473ffffffffffffffffffffffffffffffffffffffff1673ffffffffffffffffffffffffffffffffffffffff1603610320576040517f08c379a000000000000000000000000000000000000000000000000000000000815260040161031790611340565b60405180910390fd5b600015156004600084815260200190815260200160002060003373ffffffffffffffffffffffffffffffffffffffff1673ffffffffffffffffffffffffffffffffffffffff16815260200190815260200160002060009054906101000a900460ff161515146103c4576040517f08c379a00000000000000000000000000000000000000000000000000000000081526004016103bb906113ac565b60405180910390fd5b60016004600084815260200190815260200160002060003373ffffffffffffffffffffffffffffffffffffffff1673ffffffffffffffffffffffffffffffffffffffff16815260200190815260200160002060006101000a81548160ff02191690831515021790555060016003600084815260200190815260200160002060000160019054906101000a900460ff1661045d91906113fb565b6003600084815260200190815260200160002060000160016101000a81548160ff021916908360ff1602179055505050565b60008054906101000a900460ff1681565b6104a933610df6565b6104e8576040517f08c379a00000000000000000000000000000000000000000000000000000000081526004016104df90611340565b60405180910390fd5b80600073ffffffffffffffffffffffffffffffffffffffff166003600083815260200190815260200160002060000160029054906101000a900473ffffffffffffffffffffffffffffffffffffffff1673ffffffffffffffffffffffffffffffffffffffff160361058e576040517f08c379a000000000000000000000000000000000000000000000000000000000815260040161058590611340565b60405180910390fd5b600115156003600084815260200190815260200160002060000160009054906101000a900460ff161515146105f8576040517f08c379a00000000000000000000000000000000000000000000000000000000081526004016105ef9061147c565b60405180910390fd5b60006003600084815260200190815260200160002060000160006101000a81548160ff02191690831515021790555060006003600084815260200190815260200160002060000160029054906101000a900473ffffffffffffffffffffffffffffffffffffffff1673ffffffffffffffffffffffffffffffffffffffff166003600085815260200190815260200160002060010154600360008681526020019081526020016000206002016040516106b0919061159f565b60006040518083038185875af1925050503d80600081146106ed576040519150601f19603f3d011682016040523d82523d6000602084013e6106f2565b606091505b5050905080610736576040517f08c379a000000000000000000000000000000000000000000000000000000000815260040161072d90611602565b60405180910390fd5b505050565b60036020528060005260406000206000915090508060000160009054906101000a900460ff16908060000160019054906101000a900460ff16908060000160029054906101000a900473ffffffffffffffffffffffffffffffffffffffff16908060010154908060020180546107b0906114cb565b80601f01602080910402602001604051908101604052809291908181526020018280546107dc906114cb565b80156108295780601f106107fe57610100808354040283529160200191610829565b820191906000526020600020905b81548152906001019060200180831161080c57829003601f168201915b5050505050905085565b606060018054806020026020016040519081016040528092919081815260200182805480156108b757602002820191906000526020600020905b8160009054906101000a900473ffffffffffffffffffffffffffffffffffffffff1673ffffffffffffffffffffffffffffffffffffffff168152602001906001019080831161086d575b5050505050905090565b6108ca33610df6565b610909576040517f08c379a000000000000000000000000000000000000000000000000000000000815260040161090090611340565b60405180910390fd5b600073ffffffffffffffffffffffffffffffffffffffff168473ffffffffffffffffffffffffffffffffffffffff1603610978576040517f08c379a000000000000000000000000000000000000000000000000000000000815260040161096f9061166e565b60405180910390fd5b60006040518060a00160405280600015158152602001600060ff1681526020018673ffffffffffffffffffffffffffffffffffffffff16815260200185815260200184848080601f016020809104026020016040519081016040528093929190818152602001838380828437600081840152601f19601f8201169050808301925050505050505081525090508060036000600254815260200190815260200160002060008201518160000160006101000a81548160ff02191690831515021790555060208201518160000160016101000a81548160ff021916908360ff16021790555060408201518160000160026101000a81548173ffffffffffffffffffffffffffffffffffffffff021916908373ffffffffffffffffffffffffffffffffffffffff160217905550606082015181600101556080820151816002019081610ac19190611854565b50905050600260008154610ad490611926565b919050819055505050505050565b610aeb33610df6565b610b2a576040517f08c379a0000000000000000000000000000000000000000000000000000000008152600401610b2190611340565b60405180910390fd5b80600073ffffffffffffffffffffffffffffffffffffffff166003600083815260200190815260200160002060000160029054906101000a900473ffffffffffffffffffffffffffffffffffffffff1673ffffffffffffffffffffffffffffffffffffffff1603610bd0576040517f08c379a0000000000000000000000000000000000000000000000000000000008152600401610bc790611340565b60405180910390fd5b600015156003600084815260200190815260200160002060000160009054906101000a900460ff16151514610c3a576040517f08c379a0000000000000000000000000000000000000000000000000000000008152600401610c31906119ba565b60405180910390fd5b60008054906101000a900460ff1660ff166003600084815260200190815260200160002060000160019054906101000a900460ff1660ff161015610cb3576040517f08c379a0000000000000000000000000000000000000000000000000000000008152600401610caa90611a26565b60405180910390fd5b60016003600084815260200190815260200160002060000160006101000a81548160ff02191690831515021790555060006003600084815260200190815260200160002060000160029054906101000a900473ffffffffffffffffffffffffffffffffffffffff1673ffffffffffffffffffffffffffffffffffffffff16600360008581526020019081526020016000206001015460036000868152602001908152602001600020600201604051610d6b919061159f565b60006040518083038185875af1925050503d8060008114610da8576040519150601f19603f3d011682016040523d82523d6000602084013e610dad565b606091505b5050905080610df1576040517f08c379a0000000000000000000000000000000000000000000000000000000008152600401610de890611602565b60405180910390fd5b505050565b6000806000905060005b6001805490508160ff161015610ea05760018160ff1681548110610e2757610e26611a46565b5b9060005260206000200160009054906101000a900473ffffffffffffffffffffffffffffffffffffffff1673ffffffffffffffffffffffffffffffffffffffff168473ffffffffffffffffffffffffffffffffffffffff1603610e8d5760019150610ea0565b8080610e9890611a75565b915050610e00565b5080915050919050565b600080fd5b600080fd5b6000819050919050565b610ec781610eb4565b8114610ed257600080fd5b50565b600081359050610ee481610ebe565b92915050565b600073ffffffffffffffffffffffffffffffffffffffff82169050919050565b6000610f1582610eea565b9050919050565b610f2581610f0a565b8114610f3057600080fd5b50565b600081359050610f4281610f1c565b92915050565b60008060408385031215610f5f57610f5e610eaa565b5b6000610f6d85828601610ed5565b9250506020610f7e85828601610f33565b9150509250929050565b60008115159050919050565b610f9d81610f88565b82525050565b6000602082019050610fb86000830184610f94565b92915050565b600060208284031215610fd457610fd3610eaa565b5b6000610fe284828501610ed5565b91505092915050565b600060ff82169050919050565b61100181610feb565b82525050565b600060208201905061101c6000830184610ff8565b92915050565b61102b81610f0a565b82525050565b61103a81610eb4565b82525050565b600081519050919050565b600082825260208201905092915050565b60005b8381101561107a57808201518184015260208101905061105f565b60008484015250505050565b6000601f19601f8301169050919050565b60006110a282611040565b6110ac818561104b565b93506110bc81856020860161105c565b6110c581611086565b840191505092915050565b600060a0820190506110e56000830188610f94565b6110f26020830187610ff8565b6110ff6040830186611022565b61110c6060830185611031565b818103608083015261111e8184611097565b90509695505050505050565b600081519050919050565b600082825260208201905092915050565b6000819050602082019050919050565b61115f81610f0a565b82525050565b60006111718383611156565b60208301905092915050565b6000602082019050919050565b60006111958261112a565b61119f8185611135565b93506111aa83611146565b8060005b838110156111db5781516111c28882611165565b97506111cd8361117d565b9250506001810190506111ae565b5085935050505092915050565b60006020820190508181036000830152611202818461118a565b905092915050565b600080fd5b600080fd5b600080fd5b60008083601f84011261122f5761122e61120a565b5b8235905067ffffffffffffffff81111561124c5761124b61120f565b5b60208301915083600182028301111561126857611267611214565b5b9250929050565b6000806000806060858703121561128957611288610eaa565b5b600061129787828801610f33565b94505060206112a887828801610ed5565b935050604085013567ffffffffffffffff8111156112c9576112c8610eaf565b5b6112d587828801611219565b925092505092959194509250565b600082825260208201905092915050565b7f4e6f204f776e6572000000000000000000000000000000000000000000000000600082015250565b600061132a6008836112e3565b9150611335826112f4565b602082019050919050565b600060208201905081810360008301526113598161131d565b9050919050565b7f616c726561647920617070726f76656400000000000000000000000000000000600082015250565b60006113966010836112e3565b91506113a182611360565b602082019050919050565b600060208201905081810360008301526113c581611389565b9050919050565b7f4e487b7100000000000000000000000000000000000000000000000000000000600052601160045260246000fd5b600061140682610feb565b915061141183610feb565b9250828201905060ff81111561142a576114296113cc565b5b92915050565b7f6e6f742065786563757465640000000000000000000000000000000000000000600082015250565b6000611466600c836112e3565b915061147182611430565b602082019050919050565b6000602082019050818103600083015261149581611459565b9050919050565b7f4e487b7100000000000000000000000000000000000000000000000000000000600052602260045260246000fd5b600060028204905060018216806114e357607f821691505b6020821081036114f6576114f561149c565b5b50919050565b600081905092915050565b60008190508160005260206000209050919050565b60008154611529816114cb565b61153381866114fc565b9450600182166000811461154e576001811461156357611596565b60ff1983168652811515820286019350611596565b61156c85611507565b60005b8381101561158e5781548189015260018201915060208101905061156f565b838801955050505b50505092915050565b60006115ab828461151c565b915081905092915050565b7f7472616e73616374696f6e206661696c65640000000000000000000000000000600082015250565b60006115ec6012836112e3565b91506115f7826115b6565b602082019050919050565b6000602082019050818103600083015261161b816115df565b9050919050565b7f5a65726f20616464726573730000000000000000000000000000000000000000600082015250565b6000611658600c836112e3565b915061166382611622565b602082019050919050565b600060208201905081810360008301526116878161164b565b9050919050565b7f4e487b7100000000000000000000000000000000000000000000000000000000600052604160045260246000fd5b60006020601f8301049050919050565b600082821b905092915050565b60006008830261170a7fffffffffffffffffffffffffffffffffffffffffffffffffffffffffffffffff826116cd565b61171486836116cd565b95508019841693508086168417925050509392505050565b6000819050919050565b600061175161174c61174784610eb4565b61172c565b610eb4565b9050919050565b6000819050919050565b61176b83611736565b61177f61177782611758565b8484546116da565b825550505050565b600090565b611794611787565b61179f818484611762565b505050565b5b818110156117c3576117b860008261178c565b6001810190506117a5565b5050565b601f821115611808576117d981611507565b6117e2846116bd565b810160208510156117f1578190505b6118056117fd856116bd565b8301826117a4565b50505b505050565b600082821c905092915050565b600061182b6000198460080261180d565b1980831691505092915050565b6000611844838361181a565b9150826002028217905092915050565b61185d82611040565b67ffffffffffffffff8111156118765761187561168e565b5b61188082546114cb565b61188b8282856117c7565b600060209050601f8311600181146118be57600084156118ac578287015190505b6118b68582611838565b86555061191e565b601f1984166118cc86611507565b60005b828110156118f4578489015182556001820191506020850194506020810190506118cf565b86831015611911578489015161190d601f89168261181a565b8355505b6001600288020188555050505b505050505050565b600061193182610eb4565b91507fffffffffffffffffffffffffffffffffffffffffffffffffffffffffffffffff8203611963576119626113cc565b5b600182019050919050565b7f616c726561647920657865637574656400000000000000000000000000000000600082015250565b60006119a46010836112e3565b91506119af8261196e565b602082019050919050565b600060208201905081810360008301526119d381611997565b9050919050565b7f63616e6e6f742065786563757465000000000000000000000000000000000000600082015250565b6000611a10600e836112e3565b9150611a1b826119da565b602082019050919050565b60006020820190508181036000830152611a3f81611a03565b9050919050565b7f4e487b7100000000000000000000000000000000000000000000000000000000600052603260045260246000fd5b6000611a8082610feb565b915060ff8203611a9357611a926113cc565b5b60018201905091905056fea2646970667358221220aa6cfc9900693fc233272eea0d450e0318110c84bb48ab3aa14a27b6b8760a8664736f6c63430008100033",
  "immutableReferences": {},
  "source": "// SPDX-License-Identifier: MIT\r\npragma solidity ^0.8.7;\r\n\r\ncontract MultiSigWallet{\r\n\r\n    struct transaction {\r\n        bool executed;\r\n        uint8 approvals;\r\n        address to;\r\n        uint256 value;\r\n        bytes data;\r\n    }\r\n\r\n    uint8 public approvalcount;\r\n    address[] owners;\r\n    uint256 transactionId;\r\n    mapping(uint256 => transaction) public transactions;\r\n    mapping( uint256 => mapping(address=>bool)) public ownerApprovals;\r\n\r\n    constructor(address[] memory _owners,  uint8 count) {\r\n        owners = _owners;\r\n        approvalcount = count;\r\n    }\r\n\r\n    receive() external payable {}\r\n\r\n    function isOwner (address o) private view returns (bool){\r\n        bool flag = false;\r\n        for(uint8 i =0; i < owners.length ; i++){\r\n            if( o == owners[i]){\r\n                flag = true;\r\n                break;\r\n            }\r\n        }\r\n        return flag;\r\n    }\r\n\r\n    modifier onlyOwner()  {\r\n        require(isOwner(msg.sender),\"No Owner\");\r\n        _;\r\n    }\r\n\r\n    modifier isTransaction(uint256 tId)  {\r\n        require(transactions[tId].to != address(0x00), \"No Owner\");\r\n        _;\r\n    }\r\n\r\n    function getOwners() public view returns (address[] memory) {\r\n        return owners;\r\n    }\r\n\r\n    function submitTransaction(address to, uint256 value, bytes calldata data) external onlyOwner {\r\n        //check\r\n        require(to != address(0x00),\"Zero address\");\r\n        transaction memory t = transaction(false, 0, to, value, data);\r\n        transactions[transactionId] = t;\r\n        ++transactionId;\r\n    }\r\n\r\n    function approveTransaction( uint256 tID) external onlyOwner isTransaction(tID) {\r\n        require(ownerApprovals[tID][msg.sender] == false, \"already approved\");\r\n        \r\n        // logic\r\n        ownerApprovals[tID][msg.sender] = true;\r\n        transactions[tID].approvals = transactions[tID].approvals + 1;\r\n    }\r\n\r\n    function executeTransaction( uint256 tID) external onlyOwner isTransaction(tID) {\r\n        //check\r\n        require( transactions[tID].executed == false, \"already executed\");\r\n        require(transactions[tID].approvals >= approvalcount, \"cannot execute\");\r\n\r\n        // update state\r\n        transactions[tID].executed =true;\r\n\r\n        // go out of the contract\r\n        (bool status, ) = transactions[tID].to.call{value: transactions[tID].value}( transactions[tID].data);\r\n\r\n        require(status,\"transaction failed\");\r\n        \r\n    }\r\n    // to do assignment\r\n    //Revert Approval\r\n    function revertApproval(uint256 tID)external onlyOwner isTransaction(tID) {\r\n        //check\r\n        require( transactions[tID].executed == true, \"not executed\");\r\n        transactions[tID].executed =false;\r\n        // go out of the contract\r\n        (bool status, ) = transactions[tID].to.call{value: transactions[tID].value}( transactions[tID].data);\r\n\r\n        require(status,\"transaction failed\");\r\n    }\r\n}\r\n",
  "sourcePath": "C:\\Users\\sakha\\Newproject\\contracts\\MultiSigWallet.sol",
  "compiler": {
    "name": "solc",
    "version": "0.8.16+commit.07a7930e.Emscripten.clang"
  },
  "schemaVersion": "3.4.9",
  "updatedAt": "2022-10-10T16:10:08.767Z",
  "devdoc": {
    "kind": "dev",
    "methods": {},
    "version": 1
  },
  "userdoc": {
    "kind": "user",
    "methods": {},
    "version": 1
  }
}